{
  "abi": [
    {
      "inputs": [
        {
          "internalType": "bytes",
          "name": "data",
          "type": "bytes"
        }
      ],
      "name": "encode",
      "outputs": [
        {
          "internalType": "string",
          "name": "",
          "type": "string"
        }
      ],
      "stateMutability": "pure",
      "type": "function"
    }
  ],
  "bytecode": {
    "object": "0x608060405234801561001057600080fd5b506103fa806100206000396000f3fe608060405234801561001057600080fd5b506004361061002b5760003560e01c806312496a1b14610030575b600080fd5b61004361003e366004610204565b610059565b60405161005091906102ae565b60405180910390f35b805160609080610079575050604080516020810190915260008152919050565b60006003610088836002610301565b6100929190610319565b61009d906004610339565b905060006100ac826020610301565b67ffffffffffffffff8111156100d257634e487b7160e01b600052604160045260246000fd5b6040519080825280601f01601f1916602001820160405280156100fc576020820181803683370190505b5090506000604051806060016040528060408152602001610385604091399050600181016020830160005b86811015610188576003818a01810151603f601282901c8116860151600c83901c8216870151600684901c831688015192909316870151600891821b60ff94851601821b92841692909201901b91160160e01b835260049092019101610127565b5060038606600181146101a257600281146101ce576101f6565b7f3d3d0000000000000000000000000000000000000000000000000000000000006001198301526101f6565b7f3d000000000000000000000000000000000000000000000000000000000000006000198301525b505050918152949350505050565b600060208284031215610215578081fd5b813567ffffffffffffffff8082111561022c578283fd5b818401915084601f83011261023f578283fd5b8135818111156102515761025161036e565b604051601f8201601f19908116603f011681019083821181831017156102795761027961036e565b81604052828152876020848701011115610291578586fd5b826020860160208301379182016020019490945295945050505050565b6000602080835283518082850152825b818110156102da578581018301518582016040015282016102be565b818111156102eb5783604083870101525b50601f01601f1916929092016040019392505050565b6000821982111561031457610314610358565b500190565b60008261033457634e487b7160e01b81526012600452602481fd5b500490565b600081600019048311821515161561035357610353610358565b500290565b634e487b7160e01b600052601160045260246000fd5b634e487b7160e01b600052604160045260246000fdfe4142434445464748494a4b4c4d4e4f505152535455565758595a6162636465666768696a6b6c6d6e6f707172737475767778797a303132333435363738392b2fa2646970667358221220031b6ae5a09556d0732e5808e087c3cf24d5e7aafc28d01bd6923bac75e7bb1364736f6c63430008040033",
    "linkReferences": {}
  }
}